{
  "_format": "hh-sol-artifact-1",
  "contractName": "StreetLight",
  "sourceName": "contracts/streetLight.sol",
  "abi": [
    {
      "inputs": [],
      "stateMutability": "nonpayable",
      "type": "constructor"
    },
    {
      "inputs": [
        {
          "internalType": "address",
          "name": "owner",
          "type": "address"
        }
      ],
      "name": "OwnableInvalidOwner",
      "type": "error"
    },
    {
      "inputs": [
        {
          "internalType": "address",
          "name": "account",
          "type": "address"
        }
      ],
      "name": "OwnableUnauthorizedAccount",
      "type": "error"
    },
    {
      "anonymous": false,
      "inputs": [
        {
          "indexed": true,
          "internalType": "uint256",
          "name": "complaintId",
          "type": "uint256"
        },
        {
          "indexed": false,
          "internalType": "uint256",
          "name": "timestamp",
          "type": "uint256"
        },
        {
          "indexed": false,
          "internalType": "string",
          "name": "resolutionNote",
          "type": "string"
        }
      ],
      "name": "ComplaintResolved",
      "type": "event"
    },
    {
      "anonymous": false,
      "inputs": [
        {
          "indexed": true,
          "internalType": "uint256",
          "name": "complaintId",
          "type": "uint256"
        },
        {
          "indexed": false,
          "internalType": "bytes32",
          "name": "imageHash",
          "type": "bytes32"
        },
        {
          "indexed": false,
          "internalType": "enum StreetLight.IssueCategory",
          "name": "issueCategory",
          "type": "uint8"
        },
        {
          "indexed": false,
          "internalType": "uint256",
          "name": "timestamp",
          "type": "uint256"
        },
        {
          "indexed": false,
          "internalType": "enum StreetLight.VerificationType",
          "name": "verificationType",
          "type": "uint8"
        },
        {
          "indexed": false,
          "internalType": "uint8",
          "name": "aiScore",
          "type": "uint8"
        },
        {
          "indexed": false,
          "internalType": "uint8",
          "name": "finalScore",
          "type": "uint8"
        }
      ],
      "name": "ComplaintVerified",
      "type": "event"
    },
    {
      "anonymous": false,
      "inputs": [
        {
          "indexed": true,
          "internalType": "address",
          "name": "previousOwner",
          "type": "address"
        },
        {
          "indexed": true,
          "internalType": "address",
          "name": "newOwner",
          "type": "address"
        }
      ],
      "name": "OwnershipTransferred",
      "type": "event"
    },
    {
      "inputs": [
        {
          "internalType": "uint256",
          "name": "complaintId",
          "type": "uint256"
        }
      ],
      "name": "complaintExists",
      "outputs": [
        {
          "internalType": "bool",
          "name": "",
          "type": "bool"
        }
      ],
      "stateMutability": "view",
      "type": "function"
    },
    {
      "inputs": [
        {
          "internalType": "uint256",
          "name": "complaintId",
          "type": "uint256"
        }
      ],
      "name": "getComplaint",
      "outputs": [
        {
          "components": [
            {
              "internalType": "uint256",
              "name": "complaintId",
              "type": "uint256"
            },
            {
              "internalType": "bytes32",
              "name": "imageHash",
              "type": "bytes32"
            },
            {
              "internalType": "enum StreetLight.IssueCategory",
              "name": "issueCategory",
              "type": "uint8"
            },
            {
              "internalType": "uint256",
              "name": "verifiedAt",
              "type": "uint256"
            },
            {
              "internalType": "uint256",
              "name": "resolvedAt",
              "type": "uint256"
            },
            {
              "internalType": "bytes32",
              "name": "locationHash",
              "type": "bytes32"
            },
            {
              "internalType": "enum StreetLight.VerificationType",
              "name": "verificationType",
              "type": "uint8"
            },
            {
              "internalType": "enum StreetLight.Status",
              "name": "status",
              "type": "uint8"
            },
            {
              "internalType": "uint8",
              "name": "aiScore",
              "type": "uint8"
            },
            {
              "internalType": "uint8",
              "name": "finalScore",
              "type": "uint8"
            },
            {
              "internalType": "bool",
              "name": "exists",
              "type": "bool"
            }
          ],
          "internalType": "struct StreetLight.Complaint",
          "name": "",
          "type": "tuple"
        }
      ],
      "stateMutability": "view",
      "type": "function"
    },
    {
      "inputs": [],
      "name": "getStats",
      "outputs": [
        {
          "internalType": "uint256",
          "name": "total",
          "type": "uint256"
        },
        {
          "internalType": "uint256",
          "name": "resolved",
          "type": "uint256"
        },
        {
          "internalType": "uint256",
          "name": "pending",
          "type": "uint256"
        }
      ],
      "stateMutability": "view",
      "type": "function"
    },
    {
      "inputs": [
        {
          "internalType": "uint256",
          "name": "complaintId",
          "type": "uint256"
        }
      ],
      "name": "getStatus",
      "outputs": [
        {
          "internalType": "enum StreetLight.Status",
          "name": "",
          "type": "uint8"
        }
      ],
      "stateMutability": "view",
      "type": "function"
    },
    {
      "inputs": [
        {
          "internalType": "uint256",
          "name": "complaintId",
          "type": "uint256"
        },
        {
          "internalType": "string",
          "name": "resolutionNote",
          "type": "string"
        }
      ],
      "name": "markResolved",
      "outputs": [],
      "stateMutability": "nonpayable",
      "type": "function"
    },
    {
      "inputs": [],
      "name": "owner",
      "outputs": [
        {
          "internalType": "address",
          "name": "",
          "type": "address"
        }
      ],
      "stateMutability": "view",
      "type": "function"
    },
    {
      "inputs": [
        {
          "internalType": "uint256",
          "name": "complaintId",
          "type": "uint256"
        },
        {
          "internalType": "bytes32",
          "name": "imageHash",
          "type": "bytes32"
        },
        {
          "internalType": "enum StreetLight.IssueCategory",
          "name": "issueCategory",
          "type": "uint8"
        },
        {
          "internalType": "bytes32",
          "name": "locationHash",
          "type": "bytes32"
        },
        {
          "internalType": "enum StreetLight.VerificationType",
          "name": "verificationType",
          "type": "uint8"
        },
        {
          "internalType": "uint8",
          "name": "aiScore",
          "type": "uint8"
        },
        {
          "internalType": "uint8",
          "name": "finalScore",
          "type": "uint8"
        }
      ],
      "name": "registerComplaint",
      "outputs": [],
      "stateMutability": "nonpayable",
      "type": "function"
    },
    {
      "inputs": [],
      "name": "renounceOwnership",
      "outputs": [],
      "stateMutability": "nonpayable",
      "type": "function"
    },
    {
      "inputs": [],
      "name": "totalComplaints",
      "outputs": [
        {
          "internalType": "uint256",
          "name": "",
          "type": "uint256"
        }
      ],
      "stateMutability": "view",
      "type": "function"
    },
    {
      "inputs": [],
      "name": "totalResolved",
      "outputs": [
        {
          "internalType": "uint256",
          "name": "",
          "type": "uint256"
        }
      ],
      "stateMutability": "view",
      "type": "function"
    },
    {
      "inputs": [
        {
          "internalType": "address",
          "name": "newOwner",
          "type": "address"
        }
      ],
      "name": "transferOwnership",
      "outputs": [],
      "stateMutability": "nonpayable",
      "type": "function"
    },
    {
      "inputs": [
        {
          "internalType": "uint256",
          "name": "complaintId",
          "type": "uint256"
        },
        {
          "internalType": "bytes32",
          "name": "imageHash",
          "type": "bytes32"
        }
      ],
      "name": "verifyImageHash",
      "outputs": [
        {
          "internalType": "bool",
          "name": "",
          "type": "bool"
        }
      ],
      "stateMutability": "view",
      "type": "function"
    }
  ],
  "bytecode": "0x608060405234801561001057600080fd5b5033600073ffffffffffffffffffffffffffffffffffffffff168173ffffffffffffffffffffffffffffffffffffffff16036100845760006040517f1e4fbdf700000000000000000000000000000000000000000000000000000000815260040161007b919061019e565b60405180910390fd5b6100938161009960201b60201c565b506101b9565b60008060009054906101000a900473ffffffffffffffffffffffffffffffffffffffff169050816000806101000a81548173ffffffffffffffffffffffffffffffffffffffff021916908373ffffffffffffffffffffffffffffffffffffffff1602179055508173ffffffffffffffffffffffffffffffffffffffff168173ffffffffffffffffffffffffffffffffffffffff167f8be0079c531659141344cd1fd0a4f28419497f9722a3daafe3b4186f6b6457e060405160405180910390a35050565b600073ffffffffffffffffffffffffffffffffffffffff82169050919050565b60006101888261015d565b9050919050565b6101988161017d565b82525050565b60006020820190506101b3600083018461018f565b92915050565b611856806101c86000396000f3fe608060405234801561001057600080fd5b50600436106100b45760003560e01c8063a886b39811610071578063a886b39814610179578063c59d484714610197578063dc4bd460146101b7578063dee8ae43146101e7578063f2fde38b14610217578063f5e8e75f14610233576100b4565b80631914ee56146100b957806346dc21c9146100d55780635c622a0e146101055780636aca982014610135578063715018a6146101515780638da5cb5b1461015b575b600080fd5b6100d360048036038101906100ce9190610db6565b610251565b005b6100ef60048036038101906100ea9190610e4c565b6103f8565b6040516100fc9190610ea7565b60405180910390f35b61011f600480360381019061011a9190610ec2565b61047e565b60405161012c9190610f66565b60405180910390f35b61014f600480360381019061014a9190611004565b61050e565b005b610159610835565b005b610163610849565b60405161017091906110e7565b60405180910390f35b610181610872565b60405161018e9190611111565b60405180910390f35b61019f610878565b6040516101ae9392919061112c565b60405180910390f35b6101d160048036038101906101cc9190610ec2565b61089e565b6040516101de9190610ea7565b60405180910390f35b61020160048036038101906101fc9190610ec2565b6108cb565b60405161020e919061131f565b60405180910390f35b610231600480360381019061022c9190611367565b610a94565b005b61023b610b1a565b6040516102489190611111565b60405180910390f35b610259610b20565b6003600084815260200190815260200160002060060160049054906101000a900460ff166102bc576040517f08c379a00000000000000000000000000000000000000000000000000000000081526004016102b390611417565b60405180910390fd5b6001808111156102cf576102ce610eef565b5b6003600085815260200190815260200160002060060160019054906101000a900460ff16600181111561030557610304610eef565b5b03610345576040517f08c379a000000000000000000000000000000000000000000000000000000000815260040161033c90611483565b60405180910390fd5b60016003600085815260200190815260200160002060060160016101000a81548160ff0219169083600181111561037f5761037e610eef565b5b0217905550426003600085815260200190815260200160002060040181905550600260008154809291906103b2906114d2565b9190505550827f465c7caf31c610f297df8f410d692a37862ddf9e1e4a30e5efd89de5c5ebdbe34284846040516103eb93929190611567565b60405180910390a2505050565b60006003600084815260200190815260200160002060060160049054906101000a900460ff1661045d576040517f08c379a000000000000000000000000000000000000000000000000000000000815260040161045490611417565b60405180910390fd5b81600360008581526020019081526020016000206001015414905092915050565b60006003600083815260200190815260200160002060060160049054906101000a900460ff166104e3576040517f08c379a00000000000000000000000000000000000000000000000000000000081526004016104da90611417565b60405180910390fd5b6003600083815260200190815260200160002060060160019054906101000a900460ff169050919050565b610516610b20565b6003600088815260200190815260200160002060060160049054906101000a900460ff161561057a576040517f08c379a00000000000000000000000000000000000000000000000000000000081526004016105719061160b565b60405180910390fd5b60648260ff1611156105c1576040517f08c379a00000000000000000000000000000000000000000000000000000000081526004016105b89061169d565b60405180910390fd5b60648160ff161115610608576040517f08c379a00000000000000000000000000000000000000000000000000000000081526004016105ff9061172f565b60405180910390fd5b60405180610160016040528088815260200187815260200186600281111561063357610632610eef565b5b81526020014281526020016000815260200185815260200184600181111561065e5761065d610eef565b5b81526020016000600181111561067757610676610eef565b5b81526020018360ff1681526020018260ff1681526020016001151581525060036000898152602001908152602001600020600082015181600001556020820151816001015560408201518160020160006101000a81548160ff021916908360028111156106e7576106e6610eef565b5b0217905550606082015181600301556080820151816004015560a0820151816005015560c08201518160060160006101000a81548160ff0219169083600181111561073557610734610eef565b5b021790555060e08201518160060160016101000a81548160ff0219169083600181111561076557610764610eef565b5b02179055506101008201518160060160026101000a81548160ff021916908360ff1602179055506101208201518160060160036101000a81548160ff021916908360ff1602179055506101408201518160060160046101000a81548160ff021916908315150217905550905050600160008154809291906107e5906114d2565b9190505550867f1f9e31fb15e246e7497797e56635bbdaf72361ca5aaa99c093f46848203eb3d98787428787876040516108249695949392919061178b565b60405180910390a250505050505050565b61083d610b20565b6108476000610ba7565b565b60008060009054906101000a900473ffffffffffffffffffffffffffffffffffffffff16905090565b60015481565b600080600060015460025460025460015461089391906117ec565b925092509250909192565b60006003600083815260200190815260200160002060060160049054906101000a900460ff169050919050565b6108d3610c73565b6003600083815260200190815260200160002060060160049054906101000a900460ff16610936576040517f08c379a000000000000000000000000000000000000000000000000000000000815260040161092d90611417565b60405180910390fd5b600360008381526020019081526020016000206040518061016001604052908160008201548152602001600182015481526020016002820160009054906101000a900460ff16600281111561098e5761098d610eef565b5b60028111156109a05761099f610eef565b5b81526020016003820154815260200160048201548152602001600582015481526020016006820160009054906101000a900460ff1660018111156109e7576109e6610eef565b5b60018111156109f9576109f8610eef565b5b81526020016006820160019054906101000a900460ff166001811115610a2257610a21610eef565b5b6001811115610a3457610a33610eef565b5b81526020016006820160029054906101000a900460ff1660ff1660ff1681526020016006820160039054906101000a900460ff1660ff1660ff1681526020016006820160049054906101000a900460ff1615151515815250509050919050565b610a9c610b20565b600073ffffffffffffffffffffffffffffffffffffffff168173ffffffffffffffffffffffffffffffffffffffff1603610b0e5760006040517f1e4fbdf7000000000000000000000000000000000000000000000000000000008152600401610b0591906110e7565b60405180910390fd5b610b1781610ba7565b50565b60025481565b610b28610c6b565b73ffffffffffffffffffffffffffffffffffffffff16610b46610849565b73ffffffffffffffffffffffffffffffffffffffff1614610ba557610b69610c6b565b6040517f118cdaa7000000000000000000000000000000000000000000000000000000008152600401610b9c91906110e7565b60405180910390fd5b565b60008060009054906101000a900473ffffffffffffffffffffffffffffffffffffffff169050816000806101000a81548173ffffffffffffffffffffffffffffffffffffffff021916908373ffffffffffffffffffffffffffffffffffffffff1602179055508173ffffffffffffffffffffffffffffffffffffffff168173ffffffffffffffffffffffffffffffffffffffff167f8be0079c531659141344cd1fd0a4f28419497f9722a3daafe3b4186f6b6457e060405160405180910390a35050565b600033905090565b604051806101600160405280600081526020016000801916815260200160006002811115610ca457610ca3610eef565b5b815260200160008152602001600081526020016000801916815260200160006001811115610cd557610cd4610eef565b5b815260200160006001811115610cee57610ced610eef565b5b8152602001600060ff168152602001600060ff1681526020016000151581525090565b600080fd5b600080fd5b6000819050919050565b610d2e81610d1b565b8114610d3957600080fd5b50565b600081359050610d4b81610d25565b92915050565b600080fd5b600080fd5b600080fd5b60008083601f840112610d7657610d75610d51565b5b8235905067ffffffffffffffff811115610d9357610d92610d56565b5b602083019150836001820283011115610daf57610dae610d5b565b5b9250929050565b600080600060408486031215610dcf57610dce610d11565b5b6000610ddd86828701610d3c565b935050602084013567ffffffffffffffff811115610dfe57610dfd610d16565b5b610e0a86828701610d60565b92509250509250925092565b6000819050919050565b610e2981610e16565b8114610e3457600080fd5b50565b600081359050610e4681610e20565b92915050565b60008060408385031215610e6357610e62610d11565b5b6000610e7185828601610d3c565b9250506020610e8285828601610e37565b9150509250929050565b60008115159050919050565b610ea181610e8c565b82525050565b6000602082019050610ebc6000830184610e98565b92915050565b600060208284031215610ed857610ed7610d11565b5b6000610ee684828501610d3c565b91505092915050565b7f4e487b7100000000000000000000000000000000000000000000000000000000600052602160045260246000fd5b60028110610f2f57610f2e610eef565b5b50565b6000819050610f4082610f1e565b919050565b6000610f5082610f32565b9050919050565b610f6081610f45565b82525050565b6000602082019050610f7b6000830184610f57565b92915050565b60038110610f8e57600080fd5b50565b600081359050610fa081610f81565b92915050565b60028110610fb357600080fd5b50565b600081359050610fc581610fa6565b92915050565b600060ff82169050919050565b610fe181610fcb565b8114610fec57600080fd5b50565b600081359050610ffe81610fd8565b92915050565b600080600080600080600060e0888a03121561102357611022610d11565b5b60006110318a828b01610d3c565b97505060206110428a828b01610e37565b96505060406110538a828b01610f91565b95505060606110648a828b01610e37565b94505060806110758a828b01610fb6565b93505060a06110868a828b01610fef565b92505060c06110978a828b01610fef565b91505092959891949750929550565b600073ffffffffffffffffffffffffffffffffffffffff82169050919050565b60006110d1826110a6565b9050919050565b6110e1816110c6565b82525050565b60006020820190506110fc60008301846110d8565b92915050565b61110b81610d1b565b82525050565b60006020820190506111266000830184611102565b92915050565b60006060820190506111416000830186611102565b61114e6020830185611102565b61115b6040830184611102565b949350505050565b61116c81610d1b565b82525050565b61117b81610e16565b82525050565b6003811061119257611191610eef565b5b50565b60008190506111a382611181565b919050565b60006111b382611195565b9050919050565b6111c3816111a8565b82525050565b600281106111da576111d9610eef565b5b50565b60008190506111eb826111c9565b919050565b60006111fb826111dd565b9050919050565b61120b816111f0565b82525050565b61121a81610f45565b82525050565b61122981610fcb565b82525050565b61123881610e8c565b82525050565b610160820160008201516112556000850182611163565b5060208201516112686020850182611172565b50604082015161127b60408501826111ba565b50606082015161128e6060850182611163565b5060808201516112a16080850182611163565b5060a08201516112b460a0850182611172565b5060c08201516112c760c0850182611202565b5060e08201516112da60e0850182611211565b506101008201516112ef610100850182611220565b50610120820151611304610120850182611220565b5061014082015161131961014085018261122f565b50505050565b600061016082019050611335600083018461123e565b92915050565b611344816110c6565b811461134f57600080fd5b50565b6000813590506113618161133b565b92915050565b60006020828403121561137d5761137c610d11565b5b600061138b84828501611352565b91505092915050565b600082825260208201905092915050565b7f5374726565744c696768743a20436f6d706c61696e7420646f6573206e6f742060008201527f6578697374000000000000000000000000000000000000000000000000000000602082015250565b6000611401602583611394565b915061140c826113a5565b604082019050919050565b60006020820190508181036000830152611430816113f4565b9050919050565b7f5374726565744c696768743a20416c7265616479207265736f6c766564000000600082015250565b600061146d601d83611394565b915061147882611437565b602082019050919050565b6000602082019050818103600083015261149c81611460565b9050919050565b7f4e487b7100000000000000000000000000000000000000000000000000000000600052601160045260246000fd5b60006114dd82610d1b565b91507fffffffffffffffffffffffffffffffffffffffffffffffffffffffffffffffff820361150f5761150e6114a3565b5b600182019050919050565b82818337600083830152505050565b6000601f19601f8301169050919050565b60006115468385611394565b935061155383858461151a565b61155c83611529565b840190509392505050565b600060408201905061157c6000830186611102565b818103602083015261158f81848661153a565b9050949350505050565b7f5374726565744c696768743a20436f6d706c61696e7420616c7265616479207260008201527f6567697374657265640000000000000000000000000000000000000000000000602082015250565b60006115f5602983611394565b915061160082611599565b604082019050919050565b60006020820190508181036000830152611624816115e8565b9050919050565b7f5374726565744c696768743a20616953636f7265206d75737420626520302d3160008201527f3030000000000000000000000000000000000000000000000000000000000000602082015250565b6000611687602283611394565b91506116928261162b565b604082019050919050565b600060208201905081810360008301526116b68161167a565b9050919050565b7f5374726565744c696768743a2066696e616c53636f7265206d7573742062652060008201527f302d313030000000000000000000000000000000000000000000000000000000602082015250565b6000611719602583611394565b9150611724826116bd565b604082019050919050565b600060208201905081810360008301526117488161170c565b9050919050565b61175881610e16565b82525050565b611767816111a8565b82525050565b611776816111f0565b82525050565b61178581610fcb565b82525050565b600060c0820190506117a0600083018961174f565b6117ad602083018861175e565b6117ba6040830187611102565b6117c7606083018661176d565b6117d4608083018561177c565b6117e160a083018461177c565b979650505050505050565b60006117f782610d1b565b915061180283610d1b565b925082820390508181111561181a576118196114a3565b5b9291505056fea264697066735822122093ee686721ea2e3d3d631b90355eea3ce1230f72dd00ed1f40ef4bdc45b5c87464736f6c634300081c0033",
  "linkReferences": {},
  "deployedLinkReferences": {}
}